{
  "_format": "hh-sol-artifact-1",
  "contractName": "SCCrowd",
  "sourceName": "src/contracts/SCCrowd.sol",
  "abi": [
    {
      "inputs": [
        {
          "internalType": "uint256",
          "name": "_projectTax",
          "type": "uint256"
        }
      ],
      "stateMutability": "nonpayable",
      "type": "constructor"
    },
    {
      "anonymous": false,
      "inputs": [
        {
          "indexed": false,
          "internalType": "uint256",
          "name": "id",
          "type": "uint256"
        },
        {
          "indexed": false,
          "internalType": "string",
          "name": "actionType",
          "type": "string"
        },
        {
          "indexed": true,
          "internalType": "address",
          "name": "executor",
          "type": "address"
        },
        {
          "indexed": false,
          "internalType": "uint256",
          "name": "timestamp",
          "type": "uint256"
        }
      ],
      "name": "Action",
      "type": "event"
    },
    {
      "inputs": [],
      "name": "balance",
      "outputs": [
        {
          "internalType": "uint256",
          "name": "",
          "type": "uint256"
        }
      ],
      "stateMutability": "view",
      "type": "function"
    },
    {
      "inputs": [
        {
          "internalType": "uint256",
          "name": "_taxPct",
          "type": "uint256"
        }
      ],
      "name": "changeTax",
      "outputs": [],
      "stateMutability": "nonpayable",
      "type": "function"
    },
    {
      "inputs": [
        {
          "internalType": "string",
          "name": "title",
          "type": "string"
        },
        {
          "internalType": "string",
          "name": "description",
          "type": "string"
        },
        {
          "internalType": "string",
          "name": "imageURL",
          "type": "string"
        },
        {
          "internalType": "uint256",
          "name": "cost",
          "type": "uint256"
        },
        {
          "internalType": "uint256",
          "name": "expiresAt",
          "type": "uint256"
        }
      ],
      "name": "createProject",
      "outputs": [
        {
          "internalType": "bool",
          "name": "",
          "type": "bool"
        }
      ],
      "stateMutability": "nonpayable",
      "type": "function"
    },
    {
      "inputs": [
        {
          "internalType": "uint256",
          "name": "id",
          "type": "uint256"
        }
      ],
      "name": "deleteProject",
      "outputs": [
        {
          "internalType": "bool",
          "name": "",
          "type": "bool"
        }
      ],
      "stateMutability": "nonpayable",
      "type": "function"
    },
    {
      "inputs": [
        {
          "internalType": "uint256",
          "name": "id",
          "type": "uint256"
        }
      ],
      "name": "donateProject",
      "outputs": [
        {
          "internalType": "bool",
          "name": "",
          "type": "bool"
        }
      ],
      "stateMutability": "payable",
      "type": "function"
    },
    {
      "inputs": [
        {
          "internalType": "uint256",
          "name": "id",
          "type": "uint256"
        }
      ],
      "name": "getDonators",
      "outputs": [
        {
          "components": [
            {
              "internalType": "address",
              "name": "owner",
              "type": "address"
            },
            {
              "internalType": "uint256",
              "name": "contribution",
              "type": "uint256"
            },
            {
              "internalType": "uint256",
              "name": "timestamp",
              "type": "uint256"
            },
            {
              "internalType": "bool",
              "name": "refunded",
              "type": "bool"
            }
          ],
          "internalType": "struct SCCrowd.donatorsStruct[]",
          "name": "",
          "type": "tuple[]"
        }
      ],
      "stateMutability": "view",
      "type": "function"
    },
    {
      "inputs": [
        {
          "internalType": "uint256",
          "name": "id",
          "type": "uint256"
        }
      ],
      "name": "getProject",
      "outputs": [
        {
          "components": [
            {
              "internalType": "uint256",
              "name": "id",
              "type": "uint256"
            },
            {
              "internalType": "address",
              "name": "owner",
              "type": "address"
            },
            {
              "internalType": "string",
              "name": "title",
              "type": "string"
            },
            {
              "internalType": "string",
              "name": "description",
              "type": "string"
            },
            {
              "internalType": "string",
              "name": "imageURL",
              "type": "string"
            },
            {
              "internalType": "uint256",
              "name": "cost",
              "type": "uint256"
            },
            {
              "internalType": "uint256",
              "name": "raised",
              "type": "uint256"
            },
            {
              "internalType": "uint256",
              "name": "timestamp",
              "type": "uint256"
            },
            {
              "internalType": "uint256",
              "name": "expiresAt",
              "type": "uint256"
            },
            {
              "internalType": "uint256",
              "name": "donators",
              "type": "uint256"
            },
            {
              "internalType": "enum SCCrowd.statusEnum",
              "name": "status",
              "type": "uint8"
            }
          ],
          "internalType": "struct SCCrowd.projectStruct",
          "name": "",
          "type": "tuple"
        }
      ],
      "stateMutability": "view",
      "type": "function"
    },
    {
      "inputs": [],
      "name": "getProjects",
      "outputs": [
        {
          "components": [
            {
              "internalType": "uint256",
              "name": "id",
              "type": "uint256"
            },
            {
              "internalType": "address",
              "name": "owner",
              "type": "address"
            },
            {
              "internalType": "string",
              "name": "title",
              "type": "string"
            },
            {
              "internalType": "string",
              "name": "description",
              "type": "string"
            },
            {
              "internalType": "string",
              "name": "imageURL",
              "type": "string"
            },
            {
              "internalType": "uint256",
              "name": "cost",
              "type": "uint256"
            },
            {
              "internalType": "uint256",
              "name": "raised",
              "type": "uint256"
            },
            {
              "internalType": "uint256",
              "name": "timestamp",
              "type": "uint256"
            },
            {
              "internalType": "uint256",
              "name": "expiresAt",
              "type": "uint256"
            },
            {
              "internalType": "uint256",
              "name": "donators",
              "type": "uint256"
            },
            {
              "internalType": "enum SCCrowd.statusEnum",
              "name": "status",
              "type": "uint8"
            }
          ],
          "internalType": "struct SCCrowd.projectStruct[]",
          "name": "",
          "type": "tuple[]"
        }
      ],
      "stateMutability": "view",
      "type": "function"
    },
    {
      "inputs": [],
      "name": "owner",
      "outputs": [
        {
          "internalType": "address",
          "name": "",
          "type": "address"
        }
      ],
      "stateMutability": "view",
      "type": "function"
    },
    {
      "inputs": [
        {
          "internalType": "uint256",
          "name": "id",
          "type": "uint256"
        }
      ],
      "name": "payOutProject",
      "outputs": [
        {
          "internalType": "bool",
          "name": "",
          "type": "bool"
        }
      ],
      "stateMutability": "nonpayable",
      "type": "function"
    },
    {
      "inputs": [],
      "name": "projectCount",
      "outputs": [
        {
          "internalType": "uint256",
          "name": "",
          "type": "uint256"
        }
      ],
      "stateMutability": "view",
      "type": "function"
    },
    {
      "inputs": [
        {
          "internalType": "uint256",
          "name": "",
          "type": "uint256"
        }
      ],
      "name": "projectExists",
      "outputs": [
        {
          "internalType": "bool",
          "name": "",
          "type": "bool"
        }
      ],
      "stateMutability": "view",
      "type": "function"
    },
    {
      "inputs": [],
      "name": "projectTax",
      "outputs": [
        {
          "internalType": "uint256",
          "name": "",
          "type": "uint256"
        }
      ],
      "stateMutability": "view",
      "type": "function"
    },
    {
      "inputs": [
        {
          "internalType": "uint256",
          "name": "id",
          "type": "uint256"
        }
      ],
      "name": "requestRefund",
      "outputs": [
        {
          "internalType": "bool",
          "name": "",
          "type": "bool"
        }
      ],
      "stateMutability": "nonpayable",
      "type": "function"
    },
    {
      "inputs": [],
      "name": "stats",
      "outputs": [
        {
          "internalType": "uint256",
          "name": "totalProjects",
          "type": "uint256"
        },
        {
          "internalType": "uint256",
          "name": "totalDonating",
          "type": "uint256"
        },
        {
          "internalType": "uint256",
          "name": "totalDonations",
          "type": "uint256"
        }
      ],
      "stateMutability": "view",
      "type": "function"
    },
    {
      "inputs": [
        {
          "internalType": "uint256",
          "name": "id",
          "type": "uint256"
        },
        {
          "internalType": "string",
          "name": "title",
          "type": "string"
        },
        {
          "internalType": "string",
          "name": "description",
          "type": "string"
        },
        {
          "internalType": "string",
          "name": "imageURL",
          "type": "string"
        },
        {
          "internalType": "uint256",
          "name": "expiresAt",
          "type": "uint256"
        }
      ],
      "name": "updateProject",
      "outputs": [
        {
          "internalType": "bool",
          "name": "",
          "type": "bool"
        }
      ],
      "stateMutability": "nonpayable",
      "type": "function"
    }
  ],
  "bytecode": "0x608060405234801561001057600080fd5b5060405161227338038061227383398101604081905261002f91610049565b600080546001600160a01b03191633179055600155610062565b60006020828403121561005b57600080fd5b5051919050565b612202806100716000396000f3fe6080604052600436106100f35760003560e01c80639a3fa8c71161008a578063d24cd3ec11610059578063d24cd3ec146102b1578063d80528ae146102c7578063dcc6012814610301578063f0f3f2c81461032357600080fd5b80639a3fa8c71461023b578063a4b2409e1461025b578063b531dcba1461027b578063b69ef8a81461029b57600080fd5b80634cd0cb28116100c65780634cd0cb28146101a0578063703d52af146101c057806385fbf22e146101f05780638da5cb5b1461020357600080fd5b8063056c29ee146100f85780630fa91fa91461012d57806336fbad261461015a5780633e45c8af1461017e575b600080fd5b34801561010457600080fd5b50610118610113366004611d0b565b610350565b60405190151581526020015b60405180910390f35b34801561013957600080fd5b5061014d610148366004611da5565b6107b9565b6040516101249190611dbe565b34801561016657600080fd5b5061017060025481565b604051908152602001610124565b34801561018a57600080fd5b5061019e610199366004611da5565b61085b565b005b3480156101ac57600080fd5b506101186101bb366004611da5565b6108b0565b3480156101cc57600080fd5b506101186101db366004611da5565b600a6020526000908152604090205460ff1681565b6101186101fe366004611da5565b610a2c565b34801561020f57600080fd5b50600054610223906001600160a01b031681565b6040516001600160a01b039091168152602001610124565b34801561024757600080fd5b50610118610256366004611e2d565b610e3a565b34801561026757600080fd5b50610118610276366004611da5565b6110b1565b34801561028757600080fd5b50610118610296366004611da5565b6111a8565b3480156102a757600080fd5b5061017060035481565b3480156102bd57600080fd5b5061017060015481565b3480156102d357600080fd5b506004546005546006546102e692919083565b60408051938452602084019290925290820152606001610124565b34801561030d57600080fd5b50610316611297565b6040516101249190612011565b34801561032f57600080fd5b5061034361033e366004611da5565b611532565b6040516101249190612073565b60008086511161039f5760405162461bcd60e51b81526020600482015260156024820152745469746c652063616e6e6f7420626520656d70747960581b60448201526064015b60405180910390fd5b60008551116103f05760405162461bcd60e51b815260206004820152601b60248201527f4465736372697074696f6e2063616e6e6f7420626520656d70747900000000006044820152606401610396565b600084511161043c5760405162461bcd60e51b8152602060048201526018602482015277496d61676555524c2063616e6e6f7420626520656d70747960401b6044820152606401610396565b600083116104825760405162461bcd60e51b8152602060048201526013602482015272436f73742063616e6e6f74206265207a65726f60681b6044820152606401610396565b61048a611b5c565b600254815233602080830191825260408301898152606084018990526080840188905260a084018790524260e085015261010084018690526007805460018101825560009190915284517fa66cc928b5edb82af9bd49922954155ab7b0942694bea4ce44661d9a8736c688600b90920291820190815593517fa66cc928b5edb82af9bd49922954155ab7b0942694bea4ce44661d9a8736c689820180546001600160a01b0319166001600160a01b0390921691909117905590518051859493610577937fa66cc928b5edb82af9bd49922954155ab7b0942694bea4ce44661d9a8736c68a01920190611bcf565b5060608201518051610593916003840191602090910190611bcf565b50608082015180516105af916004840191602090910190611bcf565b5060a0820151600582015560c0820151600682015560e0820151600782015561010082015160088201556101208201516009820155610140820151600a8201805460ff1916600183600481111561060857610608611f14565b021790555050600280546000908152600a602090815260408083208054600160ff1990911681179091553384526008835281842080548083018255908552938390208751600b909502019384558683015190840180546001600160a01b0319166001600160a01b039092169190911790558501518051869550929361069593908501929190910190611bcf565b50606082015180516106b1916003840191602090910190611bcf565b50608082015180516106cd916004840191602090910190611bcf565b5060a0820151600582015560c0820151600682015560e0820151600782015561010082015160088201556101208201516009820155610140820151600a8201805460ff1916600183600481111561072657610726611f14565b0217905550505060016004600001600082825461074391906120a3565b90915550506002805433916000805160206121ad8339815191529190600061076a836120bb565b9091555060408051918252606060208301819052600f908301526e141493d29150d50810d49150551151608a1b6080830152429082015260a00160405180910390a25060019695505050505050565b606060096000838152602001908152602001600020805480602002602001604051908101604052809291908181526020016000905b82821015610850576000848152602090819020604080516080810182526004860290920180546001600160a01b03168352600180820154848601526002820154928401929092526003015460ff161515606083015290835290920191016107ee565b505050509050919050565b6000546001600160a01b031633146108ab5760405162461bcd60e51b81526020600482015260136024820152724f776e6572207265736572766564206f6e6c7960681b6044820152606401610396565b600155565b600080600783815481106108c6576108c66120d6565b60009182526020909120600a600b90920201015460ff1660048111156108ee576108ee611f14565b146109365760405162461bcd60e51b8152602060048201526018602482015277141c9bda9958dd081b9bc81b1bdb99d95c881bdc195b995960421b6044820152606401610396565b60078281548110610949576109496120d6565b60009182526020909120600b90910201600101546001600160a01b031633146109845760405162461bcd60e51b8152600401610396906120ec565b600360078381548110610999576109996120d6565b60009182526020909120600a600b9092020101805460ff191660018360048111156109c6576109c6611f14565b02179055506109d482611812565b60408051838152606060208201819052600f908201526e141493d29150d50811115311551151608a1b60808201524281830152905133916000805160206121ad833981519152919081900360a00190a2506001919050565b6000803411610a7d5760405162461bcd60e51b815260206004820152601d60248201527f424e42206d7573742062652067726561746572207468616e207a65726f0000006044820152606401610396565b6000828152600a602052604090205460ff16610acf5760405162461bcd60e51b8152602060048201526011602482015270141c9bda9958dd081b9bdd08199bdd5b99607a1b6044820152606401610396565b600060078381548110610ae457610ae46120d6565b60009182526020909120600a600b90920201015460ff166004811115610b0c57610b0c611f14565b14610b545760405162461bcd60e51b8152602060048201526018602482015277141c9bda9958dd081b9bc81b1bdb99d95c881bdc195b995960421b6044820152606401610396565b600160046001016000828254610b6a91906120a3565b909155505060068054349190600090610b849084906120a3565b925050819055503460078381548110610b9f57610b9f6120d6565b90600052602060002090600b02016006016000828254610bbf91906120a3565b92505081905550600160078381548110610bdb57610bdb6120d6565b90600052602060002090600b02016009016000828254610bfb91906120a3565b9091555050600082815260096020908152604080832081516080808201845233808352348387019081524284870181815260608087018b8152885460018082018b55998d529b8b902097516004909c0290970180546001600160a01b0319166001600160a01b03909c169b909b178b559251968a01969096559451600289015592516003909701805460ff1916971515979097179096558351888152948501829052600f918501919091526e141493d29150d5081113d390551151608a1b90840152908201526000805160206121ad8339815191529060a00160405180910390a260078281548110610cef57610cef6120d6565b90600052602060002090600b02016005015460078381548110610d1457610d146120d6565b90600052602060002090600b02016006015410610dbf57600160078381548110610d4057610d406120d6565b60009182526020909120600a600b9092020101805460ff19166001836004811115610d6d57610d6d611f14565b021790555060078281548110610d8557610d856120d6565b90600052602060002090600b02016006015460036000828254610da891906120a3565b90915550610db7905082611980565b506001919050565b60078281548110610dd257610dd26120d6565b90600052602060002090600b0201600801544210610db757600260078381548110610dff57610dff6120d6565b60009182526020909120600a600b9092020101805460ff19166001836004811115610e2c57610e2c611f14565b0217905550610db782611812565b600060078681548110610e4f57610e4f6120d6565b60009182526020909120600b90910201600101546001600160a01b03163314610e8a5760405162461bcd60e51b8152600401610396906120ec565b6000855111610ed35760405162461bcd60e51b81526020600482015260156024820152745469746c652063616e6e6f7420626520656d70747960581b6044820152606401610396565b6000845111610f245760405162461bcd60e51b815260206004820152601b60248201527f4465736372697074696f6e2063616e6e6f7420626520656d70747900000000006044820152606401610396565b6000835111610f705760405162461bcd60e51b8152602060048201526018602482015277496d61676555524c2063616e6e6f7420626520656d70747960401b6044820152606401610396565b8460078781548110610f8457610f846120d6565b90600052602060002090600b02016002019080519060200190610fa8929190611bcf565b508360078781548110610fbd57610fbd6120d6565b90600052602060002090600b02016003019080519060200190610fe1929190611bcf565b508260078781548110610ff657610ff66120d6565b90600052602060002090600b0201600401908051906020019061101a929190611bcf565b50816007878154811061102f5761102f6120d6565b90600052602060002090600b020160080181905550336001600160a01b03166000805160206121ad833981519152874260405161109d929190918252606060208301819052600f908301526e141493d29150d50815541110551151608a1b6080830152604082015260a00190565b60405180910390a250600195945050505050565b60006002600783815481106110c8576110c86120d6565b60009182526020909120600a600b90920201015460ff1660048111156110f0576110f0611f14565b141580611138575060036007838154811061110d5761110d6120d6565b60009182526020909120600a600b90920201015460ff16600481111561113557611135611f14565b14155b6111935760405162461bcd60e51b815260206004820152602660248201527f50726f6a656374206e6f74206d61726b656420617320726576657274206f722060448201526564656c65746560d01b6064820152608401610396565b600260078381548110610dff57610dff6120d6565b60006001600783815481106111bf576111bf6120d6565b60009182526020909120600a600b90920201015460ff1660048111156111e7576111e7611f14565b1461122b5760405162461bcd60e51b8152602060048201526014602482015273141c9bda9958dd081b9bdd081054141493d5915160621b6044820152606401610396565b6007828154811061123e5761123e6120d6565b60009182526020909120600b90910201600101546001600160a01b031633148061127257506000546001600160a01b031633145b61128e5760405162461bcd60e51b8152600401610396906120ec565b610db782611980565b60606007805480602002602001604051908101604052809291908181526020016000905b828210156115295760008481526020908190206040805161016081018252600b86029092018054835260018101546001600160a01b0316938301939093526002830180549293929184019161130f90612119565b80601f016020809104026020016040519081016040528092919081815260200182805461133b90612119565b80156113885780601f1061135d57610100808354040283529160200191611388565b820191906000526020600020905b81548152906001019060200180831161136b57829003601f168201915b505050505081526020016003820180546113a190612119565b80601f01602080910402602001604051908101604052809291908181526020018280546113cd90612119565b801561141a5780601f106113ef5761010080835404028352916020019161141a565b820191906000526020600020905b8154815290600101906020018083116113fd57829003601f168201915b5050505050815260200160048201805461143390612119565b80601f016020809104026020016040519081016040528092919081815260200182805461145f90612119565b80156114ac5780601f10611481576101008083540402835291602001916114ac565b820191906000526020600020905b81548152906001019060200180831161148f57829003601f168201915b505050918352505060058201546020820152600682015460408201526007820154606082015260088201546080820152600982015460a0820152600a82015460c09091019060ff16600481111561150557611505611f14565b600481111561151657611516611f14565b81525050815260200190600101906112bb565b50505050905090565b61153a611b5c565b6000828152600a602052604090205460ff1661158c5760405162461bcd60e51b8152602060048201526011602482015270141c9bda9958dd081b9bdd08199bdd5b99607a1b6044820152606401610396565b6007828154811061159f5761159f6120d6565b90600052602060002090600b020160405180610160016040529081600082015481526020016001820160009054906101000a90046001600160a01b03166001600160a01b03166001600160a01b0316815260200160028201805461160290612119565b80601f016020809104026020016040519081016040528092919081815260200182805461162e90612119565b801561167b5780601f106116505761010080835404028352916020019161167b565b820191906000526020600020905b81548152906001019060200180831161165e57829003601f168201915b5050505050815260200160038201805461169490612119565b80601f01602080910402602001604051908101604052809291908181526020018280546116c090612119565b801561170d5780601f106116e25761010080835404028352916020019161170d565b820191906000526020600020905b8154815290600101906020018083116116f057829003601f168201915b5050505050815260200160048201805461172690612119565b80601f016020809104026020016040519081016040528092919081815260200182805461175290612119565b801561179f5780601f106117745761010080835404028352916020019161179f565b820191906000526020600020905b81548152906001019060200180831161178257829003601f168201915b505050918352505060058201546020820152600682015460408201526007820154606082015260088201546080820152600982015460a0820152600a82015460c09091019060ff1660048111156117f8576117f8611f14565b600481111561180957611809611f14565b90525092915050565b60005b60008281526009602052604090205481101561197c57600082815260096020526040812080548390811061184b5761184b6120d6565b6000918252602080832060049092029091015485835260099091526040822080546001600160a01b039092169350908490811061188a5761188a6120d6565b906000526020600020906004020160010154905060016009600086815260200190815260200160002084815481106118c4576118c46120d6565b906000526020600020906004020160030160006101000a81548160ff02191690831515021790555042600960008681526020019081526020016000208481548110611911576119116120d6565b9060005260206000209060040201600201819055506119308282611af7565b6001600460010160008282546119469190612154565b909155505060068054829190600090611960908490612154565b9250508190555050508080611974906120bb565b915050611815565b5050565b600060078281548110611995576119956120d6565b90600052602060002090600b020160060154905060006064600154836119bb919061216b565b6119c5919061218a565b90506004600784815481106119dc576119dc6120d6565b60009182526020909120600a600b9092020101805460ff19166001836004811115611a0957611a09611f14565b0217905550611a5060078481548110611a2457611a246120d6565b600091825260209091206001600b9092020101546001600160a01b0316611a4b8385612154565b611af7565b600054611a66906001600160a01b031682611af7565b60078381548110611a7957611a796120d6565b90600052602060002090600b02016006015460036000828254611a9c9190612154565b9091555050604080518481526060602082018190526010908201526f141493d29150d508141052510813d55560821b60808201524281830152905133916000805160206121ad833981519152919081900360a00190a2505050565b6000826001600160a01b03168260405160006040518083038185875af1925050503d8060008114611b44576040519150601f19603f3d011682016040523d82523d6000602084013e611b49565b606091505b5050905080611b5757600080fd5b505050565b6040518061016001604052806000815260200160006001600160a01b03168152602001606081526020016060815260200160608152602001600081526020016000815260200160008152602001600081526020016000815260200160006004811115611bca57611bca611f14565b905290565b828054611bdb90612119565b90600052602060002090601f016020900481019282611bfd5760008555611c43565b82601f10611c1657805160ff1916838001178555611c43565b82800160010185558215611c43579182015b82811115611c43578251825591602001919060010190611c28565b50611c4f929150611c53565b5090565b5b80821115611c4f5760008155600101611c54565b634e487b7160e01b600052604160045260246000fd5b600082601f830112611c8f57600080fd5b813567ffffffffffffffff80821115611caa57611caa611c68565b604051601f8301601f19908116603f01168101908282118183101715611cd257611cd2611c68565b81604052838152866020858801011115611ceb57600080fd5b836020870160208301376000602085830101528094505050505092915050565b600080600080600060a08688031215611d2357600080fd5b853567ffffffffffffffff80821115611d3b57600080fd5b611d4789838a01611c7e565b96506020880135915080821115611d5d57600080fd5b611d6989838a01611c7e565b95506040880135915080821115611d7f57600080fd5b50611d8c88828901611c7e565b9598949750949560608101359550608001359392505050565b600060208284031215611db757600080fd5b5035919050565b602080825282518282018190526000919060409081850190868401855b82811015611e2057815180516001600160a01b031685528681015187860152858101518686015260609081015115159085015260809093019290850190600101611ddb565b5091979650505050505050565b600080600080600060a08688031215611e4557600080fd5b85359450602086013567ffffffffffffffff80821115611e6457600080fd5b611e7089838a01611c7e565b95506040880135915080821115611e8657600080fd5b611e9289838a01611c7e565b94506060880135915080821115611ea857600080fd5b50611eb588828901611c7e565b95989497509295608001359392505050565b6000815180845260005b81811015611eed57602081850181015186830182015201611ed1565b81811115611eff576000602083870101525b50601f01601f19169290920160200192915050565b634e487b7160e01b600052602160045260246000fd5b60058110611f4857634e487b7160e01b600052602160045260246000fd5b9052565b6000610160825184526020830151611f6f60208601826001600160a01b03169052565b506040830151816040860152611f8782860182611ec7565b91505060608301518482036060860152611fa18282611ec7565b91505060808301518482036080860152611fbb8282611ec7565b91505060a083015160a085015260c083015160c085015260e083015160e08501526101008084015181860152506101208084015181860152506101408084015161200782870182611f2a565b5090949350505050565b6000602080830181845280855180835260408601915060408160051b870101925083870160005b8281101561206657603f19888603018452612054858351611f4c565b94509285019290850190600101612038565b5092979650505050505050565b6020815260006120866020830184611f4c565b9392505050565b634e487b7160e01b600052601160045260246000fd5b600082198211156120b6576120b661208d565b500190565b60006000198214156120cf576120cf61208d565b5060010190565b634e487b7160e01b600052603260045260246000fd5b602080825260139082015272556e617574686f72697a656420456e7469747960681b604082015260600190565b600181811c9082168061212d57607f821691505b6020821081141561214e57634e487b7160e01b600052602260045260246000fd5b50919050565b6000828210156121665761216661208d565b500390565b60008160001904831182151516156121855761218561208d565b500290565b6000826121a757634e487b7160e01b600052601260045260246000fd5b50049056feaee8e5d3bbb2f71a951b5632cee20f7ac487b9f8ab4f66a236f7694b13af7c6aa26469706673582212203624a904efc8eada9443832ea5887290f7b49ec950dea873069133c97d5b8c6464736f6c634300080b0033",
  "linkReferences": {},
  "deployedLinkReferences": {}
}